{
  "contractName": "GoodAuction",
  "abi": [
    {
      "constant": true,
      "inputs": [],
      "name": "getHighestBidder",
      "outputs": [
        {
          "name": "",
          "type": "address"
        }
      ],
      "payable": false,
      "stateMutability": "view",
      "type": "function"
    },
    {
      "constant": true,
      "inputs": [],
      "name": "getHighestBid",
      "outputs": [
        {
          "name": "",
          "type": "uint256"
        }
      ],
      "payable": false,
      "stateMutability": "view",
      "type": "function"
    },
    {
      "constant": true,
      "inputs": [],
      "name": "lastBid",
      "outputs": [
        {
          "name": "",
          "type": "uint256"
        }
      ],
      "payable": false,
      "stateMutability": "view",
      "type": "function"
    },
    {
      "constant": true,
      "inputs": [],
      "name": "lastBidder",
      "outputs": [
        {
          "name": "",
          "type": "address"
        }
      ],
      "payable": false,
      "stateMutability": "view",
      "type": "function"
    },
    {
      "payable": true,
      "stateMutability": "payable",
      "type": "fallback"
    },
    {
      "constant": false,
      "inputs": [],
      "name": "bid",
      "outputs": [
        {
          "name": "",
          "type": "bool"
        }
      ],
      "payable": true,
      "stateMutability": "payable",
      "type": "function"
    },
    {
      "constant": false,
      "inputs": [],
      "name": "withdrawRefund",
      "outputs": [
        {
          "name": "",
          "type": "bool"
        }
      ],
      "payable": false,
      "stateMutability": "nonpayable",
      "type": "function"
    },
    {
      "constant": true,
      "inputs": [],
      "name": "getMyBalance",
      "outputs": [
        {
          "name": "",
          "type": "uint256"
        }
      ],
      "payable": false,
      "stateMutability": "view",
      "type": "function"
    },
    {
      "constant": false,
      "inputs": [],
      "name": "reduceBid",
      "outputs": [],
      "payable": false,
      "stateMutability": "nonpayable",
      "type": "function"
    }
  ],
  "bytecode": "0x6060604052341561000f57600080fd5b61066a8061001e6000396000f30060606040526004361061008d576000357c0100000000000000000000000000000000000000000000000000000000900463ffffffff1680623495a414610092578063057ae235146100e7578063110f8874146100fc5780631998aeef146101295780634979440a1461014b5780634c738909146101745780635e3d39571461019d5780638547af30146101c6575b600080fd5b341561009d57600080fd5b6100a561021b565b604051808273ffffffffffffffffffffffffffffffffffffffff1673ffffffffffffffffffffffffffffffffffffffff16815260200191505060405180910390f35b34156100f257600080fd5b6100fa610244565b005b341561010757600080fd5b61010f61030e565b604051808215151515815260200191505060405180910390f35b610131610433565b604051808215151515815260200191505060405180910390f35b341561015657600080fd5b61015e6105c1565b6040518082815260200191505060405180910390f35b341561017f57600080fd5b6101876105cb565b6040518082815260200191505060405180910390f35b34156101a857600080fd5b6101b0610612565b6040518082815260200191505060405180910390f35b34156101d157600080fd5b6101d9610618565b604051808273ffffffffffffffffffffffffffffffffffffffff1673ffffffffffffffffffffffffffffffffffffffff16815260200191505060405180910390f35b60008060009054906101000a900473ffffffffffffffffffffffffffffffffffffffff16905090565b6000809054906101000a900473ffffffffffffffffffffffffffffffffffffffff1673ffffffffffffffffffffffffffffffffffffffff163373ffffffffffffffffffffffffffffffffffffffff1614151561029f57600080fd5b6000809054906101000a900473ffffffffffffffffffffffffffffffffffffffff1673ffffffffffffffffffffffffffffffffffffffff166108fc60019081150290604051600060405180830381858888f193505050501561030c57600180600082825403925050819055505b565b600080600260003373ffffffffffffffffffffffffffffffffffffffff1673ffffffffffffffffffffffffffffffffffffffff168152602001908152602001600020549050600081111561042a576000600260003373ffffffffffffffffffffffffffffffffffffffff1673ffffffffffffffffffffffffffffffffffffffff168152602001908152602001600020819055503373ffffffffffffffffffffffffffffffffffffffff166108fc829081150290604051600060405180830381858888f1935050505015156104295780600260003373ffffffffffffffffffffffffffffffffffffffff1673ffffffffffffffffffffffffffffffffffffffff168152602001908152602001600020819055506000915061042f565b5b600191505b5090565b6000600154341115156104965734600260003373ffffffffffffffffffffffffffffffffffffffff1673ffffffffffffffffffffffffffffffffffffffff16815260200190815260200160002060008282540192505081905550600090506105be565b6001546003819055506000809054906101000a900473ffffffffffffffffffffffffffffffffffffffff16600460006101000a81548173ffffffffffffffffffffffffffffffffffffffff021916908373ffffffffffffffffffffffffffffffffffffffff160217905550336000806101000a81548173ffffffffffffffffffffffffffffffffffffffff021916908373ffffffffffffffffffffffffffffffffffffffff1602179055503460018190555060035460026000600460009054906101000a900473ffffffffffffffffffffffffffffffffffffffff1673ffffffffffffffffffffffffffffffffffffffff1673ffffffffffffffffffffffffffffffffffffffff16815260200190815260200160002060008282540192505081905550600190505b90565b6000600154905090565b6000600260003373ffffffffffffffffffffffffffffffffffffffff1673ffffffffffffffffffffffffffffffffffffffff16815260200190815260200160002054905090565b60035481565b600460009054906101000a900473ffffffffffffffffffffffffffffffffffffffff16815600a165627a7a72305820df640b9b3cf1c74b2351ad9b8cca66b3a8b03bee4b78b672674c0b8752f99c2c0029",
  "source": "pragma solidity 0.4.19;\n\nimport \"./AuctionInterface.sol\";\n\n/** @title GoodAuction */\ncontract GoodAuction is AuctionInterface {\n\n\t/* New data structure, keeps track of refunds owed */\n\tmapping(address => uint) refunds;\n\n\t// Current state of the auction.\n\tuint public lastBid;\n\taddress public lastBidder;\n\n//\t/*  Initialize the auction with a starting bid */\n//\tfunction GoodAuction(uint _startingBid) public {\n//\t\thighestBid = _startingBid;\n//\t}\n\n\t/* \tBid function, now shifted to pull paradigm.\n\t\tMust return true on successful, send and/or bid, bidder\n\t\treassignment. Must return false on failure and\n\t\tallow people to retrieve their funds  */\n\tfunction bid() payable external returns(bool) {\n\t\t// If the bid is not higher, send the\n\t\t// money back.\n\t\tif(msg.value <= highestBid) {\n\t\t\trefunds[msg.sender] += msg.value;\n\t\t\treturn false;\n\t\t}\n\t\t// Sending back the money by simply using\n\t\t// highestBidder.send(highestBid) is a security risk\n\t\t// because it could execute an untrusted contract.\n\t\t// It is always safer to let the recipients\n\t\t// withdraw their money themselves.\n\t\tlastBid = highestBid;\n\t\tlastBidder = highestBidder;\n\t\thighestBidder = msg.sender;\n\t\thighestBid = msg.value;\n\t\trefunds[lastBidder] += lastBid;\n\t\treturn true;\n\t}\n\n\t/*  Implement withdraw function to complete new\n\t    pull paradigm. Returns true on successful\n\t    return of owed funds and false on failure\n\t    or no funds owed.  */\n\tfunction withdrawRefund() external returns(bool) {\n\t\t// YOUR CODE HERE\n\t\tuint amount = refunds[msg.sender];\n\t\tif (amount > 0) {\n\t\t\t// It is important to set this to zero because the recipient\n\t\t\t// can call this function again as part of the receiving call\n\t\t\t// before `send` returns.\n\t\t\trefunds[msg.sender] = 0;\n\n\t\t\tif (!msg.sender.send(amount)) {\n\t\t\t\t// No need to call throw here, just reset the amount owing\n\t\t\t\trefunds[msg.sender] = amount;\n\t\t\t\treturn false;\n\t\t\t}\n\t\t}\n\t\treturn true;\n\t}\n\n\t/*  Allow users to check the amount they are owed\n\t\tbefore calling withdrawRefund(). Function returns\n\t\tamount owed.  */\n\tfunction getMyBalance() constant external returns(uint) {\n\t\treturn refunds[msg.sender];\n\t}\n\n\n\t/* \tConsider implementing this modifier\n\t\tand applying it to the reduceBid function\n\t\tyou fill in below. */\n\tmodifier canReduce() {\n\t\trequire(msg.sender == highestBidder);\n\t\t_;\n\t}\n\n\n\t/*  Rewrite reduceBid from BadAuction to fix\n\t\tthe security vulnerabilities. Should allow the\n\t\tcurrent highest bidder only to reduce their bid amount */\n\tfunction reduceBid() external canReduce {\n\t\tif(highestBidder.send(1)) {\n\t\t\thighestBid -= 1;\n\t\t}\n\n\t}\n\n\n\t/* \tRemember this fallback function\n\t\tgets invoked if somebody calls a\n\t\tfunction that does not exist in this\n\t\tcontract. But we're good people so we don't\n\t\twant to profit on people's mistakes.\n\t\tHow do we send people their money back?  */\n\n\tfunction () payable {\n\t\trevert();\n\t}\n\n}\n",
  "sourcePath": "/home/jakub/bdev-repo/sp18-lab03/contracts/GoodAuction.sol",
  "compiler": {
    "name": "solc",
    "version": "0.4.19+commit.c4cbbb05.Emscripten.clang"
  },
  "schemaVersion": "1.0.1",
  "updatedAt": "2018-03-06T23:57:55.703Z"
}